{
  "contractName": "Auction",
  "abi": [
    {
      "constant": true,
      "inputs": [],
      "name": "highestBidder",
      "outputs": [
        {
          "name": "",
          "type": "address"
        }
      ],
      "payable": false,
      "stateMutability": "view",
      "type": "function"
    },
    {
      "constant": true,
      "inputs": [],
      "name": "highestBid",
      "outputs": [
        {
          "name": "",
          "type": "uint256"
        }
      ],
      "payable": false,
      "stateMutability": "view",
      "type": "function"
    },
    {
      "inputs": [
        {
          "name": "_initialBid",
          "type": "uint256"
        }
      ],
      "payable": false,
      "stateMutability": "nonpayable",
      "type": "constructor"
    },
    {
      "anonymous": false,
      "inputs": [
        {
          "indexed": false,
          "name": "_highestBid",
          "type": "uint256"
        },
        {
          "indexed": false,
          "name": "_winner",
          "type": "address"
        }
      ],
      "name": "auctionEnded",
      "type": "event"
    },
    {
      "anonymous": false,
      "inputs": [
        {
          "indexed": false,
          "name": "_highestBid",
          "type": "uint256"
        }
      ],
      "name": "newHighestBid",
      "type": "event"
    },
    {
      "constant": false,
      "inputs": [],
      "name": "bid",
      "outputs": [],
      "payable": true,
      "stateMutability": "payable",
      "type": "function"
    },
    {
      "constant": false,
      "inputs": [],
      "name": "endBid",
      "outputs": [],
      "payable": false,
      "stateMutability": "nonpayable",
      "type": "function"
    },
    {
      "constant": true,
      "inputs": [],
      "name": "getCurrentHighestBid",
      "outputs": [
        {
          "name": "",
          "type": "uint256"
        },
        {
          "name": "",
          "type": "address"
        }
      ],
      "payable": false,
      "stateMutability": "view",
      "type": "function"
    }
  ],
  "bytecode": "0x608060405234801561001057600080fd5b5060405160208061056183398101806040528101908080519060200190929190505050336000806101000a81548173ffffffffffffffffffffffffffffffffffffffff021916908373ffffffffffffffffffffffffffffffffffffffff160217905550806002819055506000809054906101000a900473ffffffffffffffffffffffffffffffffffffffff16600160006101000a81548173ffffffffffffffffffffffffffffffffffffffff021916908373ffffffffffffffffffffffffffffffffffffffff16021790555050610475806100ec6000396000f30060806040526004361061006d576000357c0100000000000000000000000000000000000000000000000000000000900463ffffffff1680631998aeef1461007257806320d6c0401461007c5780638bae720b146100da57806391f90157146100f1578063d57bde7914610148575b600080fd5b61007a610173565b005b34801561008857600080fd5b506100916102e5565b604051808381526020018273ffffffffffffffffffffffffffffffffffffffff1673ffffffffffffffffffffffffffffffffffffffff1681526020019250505060405180910390f35b3480156100e657600080fd5b506100ef610316565b005b3480156100fd57600080fd5b5061010661041d565b604051808273ffffffffffffffffffffffffffffffffffffffff1673ffffffffffffffffffffffffffffffffffffffff16815260200191505060405180910390f35b34801561015457600080fd5b5061015d610443565b6040518082815260200191505060405180910390f35b600060149054906101000a900460ff1615151561018f57600080fd5b6000809054906101000a900473ffffffffffffffffffffffffffffffffffffffff1673ffffffffffffffffffffffffffffffffffffffff163373ffffffffffffffffffffffffffffffffffffffff16141515156101eb57600080fd5b60025434111515610264576040517f08c379a000000000000000000000000000000000000000000000000000000000815260040180806020018281038252601a8152602001807f596f7572206269642076616c756520697320746f6f206c6f772100000000000081525060200191505060405180910390fd5b3460028190555033600160006101000a81548173ffffffffffffffffffffffffffffffffffffffff021916908373ffffffffffffffffffffffffffffffffffffffff1602179055507f679c878847ec86818c7d1131ceb88f715d9e99bbfbd9a56656eaeb23b9716f86346040518082815260200191505060405180910390a1565b600080600254600160009054906101000a900473ffffffffffffffffffffffffffffffffffffffff16915091509091565b6000809054906101000a900473ffffffffffffffffffffffffffffffffffffffff1673ffffffffffffffffffffffffffffffffffffffff163373ffffffffffffffffffffffffffffffffffffffff1614151561037157600080fd5b6001600060146101000a81548160ff0219169083151502179055507f31ebbb97fcf93c7916f56fb10f8eb145d9f28ed8edcd5613babb053aa70d136e600254600160009054906101000a900473ffffffffffffffffffffffffffffffffffffffff16604051808381526020018273ffffffffffffffffffffffffffffffffffffffff1673ffffffffffffffffffffffffffffffffffffffff1681526020019250505060405180910390a1565b600160009054906101000a900473ffffffffffffffffffffffffffffffffffffffff1681565b600254815600a165627a7a72305820e9a1bc2ef99cbf15d49523072dbad32d14ad2256bd16d7a71523a927bbe76e410029",
  "source": "pragma solidity ^0.4.17;\n\ncontract Auction {\n    address owner;\n    bool ended;\n    address public highestBidder;\n    uint256 public highestBid;\n\n    constructor (uint256 _initialBid) public {\n        owner = msg.sender;\n        highestBid = _initialBid;\n        highestBidder = owner;\n    }\n\n    modifier onlyOwner() {\n        require(msg.sender == owner);\n        _;\n    }\n\n    modifier notAllowOwner() {\n        require(msg.sender != owner);\n        _;\n    }\n\n    modifier auctionNotEndYet() {\n        require(!ended);\n        _;\n    } \n\n    event auctionEnded(uint256 _highestBid, address _winner);\n    event newHighestBid(uint256 _highestBid);\n\n    function bid() public payable auctionNotEndYet notAllowOwner{\n        require(msg.value > highestBid, \"Your bid value is too low!\");\n        highestBid = msg.value;\n        highestBidder = msg.sender;\n        emit newHighestBid(msg.value);\n    }\n\n    function endBid() public onlyOwner {\n        ended = true;\n        emit auctionEnded(highestBid, highestBidder);\n    }\n\n    function getCurrentHighestBid() public constant returns (uint256, address) {\n        return (highestBid, highestBidder);\n    }\n\n}",
  "sourcePath": "/Volumes/DATA/NIENDOCS/WorkSpace/RESEARCH/Truffle/TruffleInAction/Auction/contracts/Auction.sol",
  "compiler": {
    "name": "solc",
    "version": "0.4.24+commit.e67f0147.Emscripten.clang"
  },
  "schemaVersion": "2.0.0",
  "updatedAt": "2018-06-15T07:55:09.398Z"
}