{
  "contractName": "Auction",
  "abi": [
    {
      "inputs": [
        {
          "name": "_initialBid",
          "type": "uint256"
        }
      ],
      "payable": false,
      "stateMutability": "nonpayable",
      "type": "constructor"
    },
    {
      "anonymous": false,
      "inputs": [
        {
          "indexed": false,
          "name": "_highestBid",
          "type": "uint256"
        },
        {
          "indexed": false,
          "name": "_winner",
          "type": "address"
        }
      ],
      "name": "auctionEnded",
      "type": "event"
    },
    {
      "anonymous": false,
      "inputs": [
        {
          "indexed": false,
          "name": "_highestBid",
          "type": "uint256"
        }
      ],
      "name": "newHighestBid",
      "type": "event"
    },
    {
      "constant": false,
      "inputs": [],
      "name": "bid",
      "outputs": [],
      "payable": true,
      "stateMutability": "payable",
      "type": "function"
    },
    {
      "constant": false,
      "inputs": [],
      "name": "withdraw",
      "outputs": [
        {
          "name": "",
          "type": "uint256"
        }
      ],
      "payable": false,
      "stateMutability": "nonpayable",
      "type": "function"
    },
    {
      "constant": false,
      "inputs": [],
      "name": "endBid",
      "outputs": [],
      "payable": false,
      "stateMutability": "nonpayable",
      "type": "function"
    },
    {
      "constant": true,
      "inputs": [],
      "name": "getCurrentHighestBid",
      "outputs": [
        {
          "name": "",
          "type": "uint256"
        },
        {
          "name": "",
          "type": "address"
        }
      ],
      "payable": false,
      "stateMutability": "view",
      "type": "function"
    }
  ],
  "bytecode": "0x608060405234801561001057600080fd5b506040516020806106cc83398101806040528101908080519060200190929190505050336000806101000a81548173ffffffffffffffffffffffffffffffffffffffff021916908373ffffffffffffffffffffffffffffffffffffffff160217905550806002819055506000809054906101000a900473ffffffffffffffffffffffffffffffffffffffff16600160006101000a81548173ffffffffffffffffffffffffffffffffffffffff021916908373ffffffffffffffffffffffffffffffffffffffff160217905550506105e0806100ec6000396000f300608060405260043610610062576000357c0100000000000000000000000000000000000000000000000000000000900463ffffffff1680631998aeef1461006757806320d6c040146100715780633ccfd60b146100cf5780638bae720b146100fa575b600080fd5b61006f610111565b005b34801561007d57600080fd5b506100866102d0565b604051808381526020018273ffffffffffffffffffffffffffffffffffffffff1673ffffffffffffffffffffffffffffffffffffffff1681526020019250505060405180910390f35b3480156100db57600080fd5b506100e4610301565b6040518082815260200191505060405180910390f35b34801561010657600080fd5b5061010f61043c565b005b600060149054906101000a900460ff1615151561012d57600080fd5b6000809054906101000a900473ffffffffffffffffffffffffffffffffffffffff1673ffffffffffffffffffffffffffffffffffffffff163373ffffffffffffffffffffffffffffffffffffffff161415151561018957600080fd5b60025434111515610202576040517f08c379a000000000000000000000000000000000000000000000000000000000815260040180806020018281038252601a8152602001807f596f7572206269642076616c756520697320746f6f206c6f772100000000000081525060200191505060405180910390fd5b3460028190555033600160006101000a81548173ffffffffffffffffffffffffffffffffffffffff021916908373ffffffffffffffffffffffffffffffffffffffff16021790555034600360003373ffffffffffffffffffffffffffffffffffffffff1673ffffffffffffffffffffffffffffffffffffffff168152602001908152602001600020600082825401925050819055507f679c878847ec86818c7d1131ceb88f715d9e99bbfbd9a56656eaeb23b9716f86346040518082815260200191505060405180910390a1565b600080600254600160009054906101000a900473ffffffffffffffffffffffffffffffffffffffff16915091509091565b600080600060149054906101000a900460ff1615156103235760009150610438565b600360003373ffffffffffffffffffffffffffffffffffffffff1673ffffffffffffffffffffffffffffffffffffffff1681526020019081526020016000205490506000811115610434576000600360003373ffffffffffffffffffffffffffffffffffffffff1673ffffffffffffffffffffffffffffffffffffffff168152602001908152602001600020819055503373ffffffffffffffffffffffffffffffffffffffff166108fc829081150290604051600060405180830381858888f1935050505015156104335780600360003373ffffffffffffffffffffffffffffffffffffffff1673ffffffffffffffffffffffffffffffffffffffff168152602001908152602001600020819055505b5b8091505b5090565b6000809054906101000a900473ffffffffffffffffffffffffffffffffffffffff1673ffffffffffffffffffffffffffffffffffffffff163373ffffffffffffffffffffffffffffffffffffffff1614151561049757600080fd5b6001600060146101000a81548160ff02191690831515021790555060025460036000600160009054906101000a900473ffffffffffffffffffffffffffffffffffffffff1673ffffffffffffffffffffffffffffffffffffffff1673ffffffffffffffffffffffffffffffffffffffff168152602001908152602001600020600082825403925050819055507f31ebbb97fcf93c7916f56fb10f8eb145d9f28ed8edcd5613babb053aa70d136e600254600160009054906101000a900473ffffffffffffffffffffffffffffffffffffffff16604051808381526020018273ffffffffffffffffffffffffffffffffffffffff1673ffffffffffffffffffffffffffffffffffffffff1681526020019250505060405180910390a15600a165627a7a72305820f2e3d42c5ae4274ab5026950e740f1d4dbaac7fb4fe3651f614c862902fced5e0029",
  "source": "pragma solidity ^0.4.17;\n\ncontract Auction {\n    address owner;\n    bool ended;\n    address highestBidder;\n    uint256 highestBid;\n    mapping(address => uint256) userBiddedValue;\n\n    constructor (uint256 _initialBid) public {\n        owner = msg.sender;\n        highestBid = _initialBid;\n        highestBidder = owner;\n    }\n\n    modifier onlyOwner() {\n        require(msg.sender == owner);\n        _;\n    }\n\n    modifier notAllowOwner() {\n        require(msg.sender != owner);\n        _;\n    }\n\n    modifier auctionNotEndYet() {\n        require(!ended);\n        _;\n    }\n\n    \n\n    event auctionEnded(uint256 _highestBid, address _winner);\n    event newHighestBid(uint256 _highestBid);\n\n    function bid() public payable auctionNotEndYet notAllowOwner{\n        require(msg.value > highestBid, \"Your bid value is too low!\");\n        highestBid = msg.value;\n        highestBidder = msg.sender;\n        userBiddedValue[msg.sender] += msg.value;\n        emit newHighestBid(msg.value);\n    }\n\n    function withdraw() public returns (uint256) {\n        if(!ended) return 0;\n        uint256 amount = userBiddedValue[msg.sender];\n        if (amount > 0) {\n            userBiddedValue[msg.sender] = 0;\n            if (!msg.sender.send(amount)) {\n                userBiddedValue[msg.sender] = amount;\n            }\n        } \n        return amount;\n    }\n\n    function endBid() public onlyOwner {\n        ended = true;\n        userBiddedValue[highestBidder] -= highestBid;\n        emit auctionEnded(highestBid, highestBidder);\n    }\n\n    function getCurrentHighestBid() public constant returns (uint256, address) {\n        return (highestBid, highestBidder);\n    }\n\n}",
  "sourcePath": "/Volumes/DATA/NIENDOCS/WorkSpace/RESEARCH/Truffle/TruffleInAction/Auction/contracts/Auction.sol",
  "compiler": {
    "name": "solc",
    "version": "0.4.24+commit.e67f0147.Emscripten.clang"
  },
  "schemaVersion": "2.0.0",
  "updatedAt": "2018-06-15T10:03:27.264Z"
}